{
  "contractName": "DjangoApp",
  "abi": [
    {
      "inputs": [
        {
          "internalType": "address",
          "name": "_tokenA",
          "type": "address"
        },
        {
          "internalType": "address",
          "name": "_tokenB",
          "type": "address"
        },
        {
          "internalType": "address",
          "name": "_tokenAB",
          "type": "address"
        },
        {
          "internalType": "address",
          "name": "_tokenDjango",
          "type": "address"
        }
      ],
      "stateMutability": "nonpayable",
      "type": "constructor"
    },
    {
      "inputs": [],
      "name": "tokenA",
      "outputs": [
        {
          "internalType": "contract TokenFaucet",
          "name": "",
          "type": "address"
        }
      ],
      "stateMutability": "view",
      "type": "function"
    },
    {
      "inputs": [],
      "name": "tokenAB",
      "outputs": [
        {
          "internalType": "contract TokenPool",
          "name": "",
          "type": "address"
        }
      ],
      "stateMutability": "view",
      "type": "function"
    },
    {
      "inputs": [],
      "name": "tokenB",
      "outputs": [
        {
          "internalType": "contract TokenFaucet",
          "name": "",
          "type": "address"
        }
      ],
      "stateMutability": "view",
      "type": "function"
    },
    {
      "inputs": [],
      "name": "tokenDjango",
      "outputs": [
        {
          "internalType": "contract TokenDjango",
          "name": "",
          "type": "address"
        }
      ],
      "stateMutability": "view",
      "type": "function"
    },
    {
      "inputs": [],
      "name": "useFaucet",
      "outputs": [],
      "stateMutability": "nonpayable",
      "type": "function"
    },
    {
      "inputs": [
        {
          "internalType": "uint256",
          "name": "amountTokenA_",
          "type": "uint256"
        },
        {
          "internalType": "uint256",
          "name": "amountTokenB_",
          "type": "uint256"
        }
      ],
      "name": "swapFaucetTokensForPoolTokens",
      "outputs": [],
      "stateMutability": "nonpayable",
      "type": "function"
    },
    {
      "inputs": [
        {
          "internalType": "uint256",
          "name": "amountTokenAB_",
          "type": "uint256"
        }
      ],
      "name": "swapPoolTokensForFaucetTokens",
      "outputs": [],
      "stateMutability": "nonpayable",
      "type": "function"
    },
    {
      "inputs": [
        {
          "internalType": "address",
          "name": "account_",
          "type": "address"
        }
      ],
      "name": "getDjangoEarned",
      "outputs": [
        {
          "internalType": "uint256",
          "name": "",
          "type": "uint256"
        }
      ],
      "stateMutability": "view",
      "type": "function"
    },
    {
      "inputs": [
        {
          "internalType": "uint256",
          "name": "amount_",
          "type": "uint256"
        }
      ],
      "name": "deposit",
      "outputs": [],
      "stateMutability": "nonpayable",
      "type": "function"
    },
    {
      "inputs": [
        {
          "internalType": "uint256",
          "name": "amount_",
          "type": "uint256"
        }
      ],
      "name": "withdraw",
      "outputs": [],
      "stateMutability": "nonpayable",
      "type": "function"
    },
    {
      "inputs": [],
      "name": "claim",
      "outputs": [],
      "stateMutability": "nonpayable",
      "type": "function"
    }
  ],
  "bytecode": "0x6080604052600160005560646001553480156200001b57600080fd5b5060405162001b7c38038062001b7c833981810160405281019062000041919062000166565b83600260006101000a81548173ffffffffffffffffffffffffffffffffffffffff021916908373ffffffffffffffffffffffffffffffffffffffff16021790555082600360006101000a81548173ffffffffffffffffffffffffffffffffffffffff021916908373ffffffffffffffffffffffffffffffffffffffff16021790555081600460006101000a81548173ffffffffffffffffffffffffffffffffffffffff021916908373ffffffffffffffffffffffffffffffffffffffff16021790555080600560006101000a81548173ffffffffffffffffffffffffffffffffffffffff021916908373ffffffffffffffffffffffffffffffffffffffff1602179055505050505062000220565b600081519050620001608162000206565b92915050565b600080600080608085870312156200017d57600080fd5b60006200018d878288016200014f565b9450506020620001a0878288016200014f565b9350506040620001b3878288016200014f565b9250506060620001c6878288016200014f565b91505092959194509250565b6000620001df82620001e6565b9050919050565b600073ffffffffffffffffffffffffffffffffffffffff82169050919050565b6200021181620001d2565b81146200021d57600080fd5b50565b61194c80620002306000396000f3fe608060405234801561001057600080fd5b50600436106100a95760003560e01c80634e71d92d116100715780634e71d92d1461012c5780635f64b55b1461013657806387239fcd14610154578063b6b55f2514610170578063cbc2da911461018c578063f93ca62e146101bc576100a9565b80630fc63d10146100ae57806312dbde94146100cc5780631c31a4c2146100ea57806329814998146101065780632e1a7d4d14610110575b600080fd5b6100b66101da565b6040516100c391906113c9565b60405180910390f35b6100d4610200565b6040516100e191906113ae565b60405180910390f35b61010460048036038101906100ff919061123d565b610226565b005b61010e610429565b005b61012a600480360381019061012591906111eb565b61078d565b005b6101346109aa565b005b61013e610ad4565b60405161014b91906113c9565b60405180910390f35b61016e600480360381019061016991906111eb565b610afa565b005b61018a600480360381019061018591906111eb565b610cec565b005b6101a660048036038101906101a19190611199565b610e89565b6040516101b3919061143f565b60405180910390f35b6101c4610ee5565b6040516101d191906113e4565b60405180910390f35b600260009054906101000a900473ffffffffffffffffffffffffffffffffffffffff1681565b600560009054906101000a900473ffffffffffffffffffffffffffffffffffffffff1681565b80821461023257600080fd5b600260009054906101000a900473ffffffffffffffffffffffffffffffffffffffff1673ffffffffffffffffffffffffffffffffffffffff166323b872dd3330856040518463ffffffff1660e01b81526004016102919392919061134e565b602060405180830381600087803b1580156102ab57600080fd5b505af11580156102bf573d6000803e3d6000fd5b505050506040513d601f19601f820116820180604052508101906102e391906111c2565b50600360009054906101000a900473ffffffffffffffffffffffffffffffffffffffff1673ffffffffffffffffffffffffffffffffffffffff166323b872dd3330846040518463ffffffff1660e01b81526004016103439392919061134e565b602060405180830381600087803b15801561035d57600080fd5b505af1158015610371573d6000803e3d6000fd5b505050506040513d601f19601f8201168201806040525081019061039591906111c2565b50600460009054906101000a900473ffffffffffffffffffffffffffffffffffffffff1673ffffffffffffffffffffffffffffffffffffffff166340c10f1933846040518363ffffffff1660e01b81526004016103f3929190611385565b600060405180830381600087803b15801561040d57600080fd5b505af1158015610421573d6000803e3d6000fd5b505050505050565b62015180600660003373ffffffffffffffffffffffffffffffffffffffff1673ffffffffffffffffffffffffffffffffffffffff16815260200190815260200160002054610477919061146b565b4210156104b9576040517f08c379a00000000000000000000000000000000000000000000000000000000081526004016104b0906113ff565b60405180910390fd5b42600660003373ffffffffffffffffffffffffffffffffffffffff1673ffffffffffffffffffffffffffffffffffffffff16815260200190815260200160002081905550600260009054906101000a900473ffffffffffffffffffffffffffffffffffffffff1673ffffffffffffffffffffffffffffffffffffffff166340c10f1933600260009054906101000a900473ffffffffffffffffffffffffffffffffffffffff1673ffffffffffffffffffffffffffffffffffffffff1663313ce5676040518163ffffffff1660e01b815260040160206040518083038186803b1580156105a457600080fd5b505afa1580156105b8573d6000803e3d6000fd5b505050506040513d601f19601f820116820180604052508101906105dc9190611279565b600a6105e89190611590565b6001546105f591906116ae565b6040518363ffffffff1660e01b8152600401610612929190611385565b600060405180830381600087803b15801561062c57600080fd5b505af1158015610640573d6000803e3d6000fd5b50505050600360009054906101000a900473ffffffffffffffffffffffffffffffffffffffff1673ffffffffffffffffffffffffffffffffffffffff166340c10f1933600360009054906101000a900473ffffffffffffffffffffffffffffffffffffffff1673ffffffffffffffffffffffffffffffffffffffff1663313ce5676040518163ffffffff1660e01b815260040160206040518083038186803b1580156106eb57600080fd5b505afa1580156106ff573d6000803e3d6000fd5b505050506040513d601f19601f820116820180604052508101906107239190611279565b600a61072f9190611590565b60015461073c91906116ae565b6040518363ffffffff1660e01b8152600401610759929190611385565b600060405180830381600087803b15801561077357600080fd5b505af1158015610787573d6000803e3d6000fd5b50505050565b80600760003373ffffffffffffffffffffffffffffffffffffffff1673ffffffffffffffffffffffffffffffffffffffff16815260200190815260200160002054101561080f576040517f08c379a00000000000000000000000000000000000000000000000000000000081526004016108069061141f565b60405180910390fd5b6108a1333073ffffffffffffffffffffffffffffffffffffffff1663cbc2da91336040518263ffffffff1660e01b815260040161084c9190611333565b60206040518083038186803b15801561086457600080fd5b505afa158015610878573d6000803e3d6000fd5b505050506040513d601f19601f8201168201806040525081019061089c9190611214565b610f0b565b80600760003373ffffffffffffffffffffffffffffffffffffffff1673ffffffffffffffffffffffffffffffffffffffff16815260200190815260200160002060008282546108f09190611708565b92505081905550600460009054906101000a900473ffffffffffffffffffffffffffffffffffffffff1673ffffffffffffffffffffffffffffffffffffffff1663a9059cbb33836040518363ffffffff1660e01b8152600401610954929190611385565b602060405180830381600087803b15801561096e57600080fd5b505af1158015610982573d6000803e3d6000fd5b505050506040513d601f19601f820116820180604052508101906109a691906111c2565b5050565b60003073ffffffffffffffffffffffffffffffffffffffff1663cbc2da91336040518263ffffffff1660e01b81526004016109e59190611333565b60206040518083038186803b1580156109fd57600080fd5b505afa158015610a11573d6000803e3d6000fd5b505050506040513d601f19601f82011682018060405250810190610a359190611214565b9050610a42336000610f0b565b600560009054906101000a900473ffffffffffffffffffffffffffffffffffffffff1673ffffffffffffffffffffffffffffffffffffffff166340c10f1933836040518363ffffffff1660e01b8152600401610a9f929190611385565b600060405180830381600087803b158015610ab957600080fd5b505af1158015610acd573d6000803e3d6000fd5b5050505050565b600360009054906101000a900473ffffffffffffffffffffffffffffffffffffffff1681565b600460009054906101000a900473ffffffffffffffffffffffffffffffffffffffff1673ffffffffffffffffffffffffffffffffffffffff166379cc679033836040518363ffffffff1660e01b8152600401610b57929190611385565b600060405180830381600087803b158015610b7157600080fd5b505af1158015610b85573d6000803e3d6000fd5b50505050600260009054906101000a900473ffffffffffffffffffffffffffffffffffffffff1673ffffffffffffffffffffffffffffffffffffffff1663a9059cbb33836040518363ffffffff1660e01b8152600401610be6929190611385565b602060405180830381600087803b158015610c0057600080fd5b505af1158015610c14573d6000803e3d6000fd5b505050506040513d601f19601f82011682018060405250810190610c3891906111c2565b50600360009054906101000a900473ffffffffffffffffffffffffffffffffffffffff1673ffffffffffffffffffffffffffffffffffffffff1663a9059cbb30836040518363ffffffff1660e01b8152600401610c96929190611385565b602060405180830381600087803b158015610cb057600080fd5b505af1158015610cc4573d6000803e3d6000fd5b505050506040513d601f19601f82011682018060405250810190610ce891906111c2565b5050565b600460009054906101000a900473ffffffffffffffffffffffffffffffffffffffff1673ffffffffffffffffffffffffffffffffffffffff166323b872dd3330846040518463ffffffff1660e01b8152600401610d4b9392919061134e565b602060405180830381600087803b158015610d6557600080fd5b505af1158015610d79573d6000803e3d6000fd5b505050506040513d601f19601f82011682018060405250810190610d9d91906111c2565b50610e30333073ffffffffffffffffffffffffffffffffffffffff1663cbc2da91336040518263ffffffff1660e01b8152600401610ddb9190611333565b60206040518083038186803b158015610df357600080fd5b505afa158015610e07573d6000803e3d6000fd5b505050506040513d601f19601f82011682018060405250810190610e2b9190611214565b610f0b565b80600760003373ffffffffffffffffffffffffffffffffffffffff1673ffffffffffffffffffffffffffffffffffffffff1681526020019081526020016000206000828254610e7f919061146b565b9250508190555050565b6000610e9482610f97565b600860008473ffffffffffffffffffffffffffffffffffffffff1673ffffffffffffffffffffffffffffffffffffffff16815260200190815260200160002054610ede919061146b565b9050919050565b600460009054906101000a900473ffffffffffffffffffffffffffffffffffffffff1681565b80600860008473ffffffffffffffffffffffffffffffffffffffff1673ffffffffffffffffffffffffffffffffffffffff1681526020019081526020016000208190555043600960008473ffffffffffffffffffffffffffffffffffffffff1673ffffffffffffffffffffffffffffffffffffffff168152602001908152602001600020819055505050565b600080600760008473ffffffffffffffffffffffffffffffffffffffff1673ffffffffffffffffffffffffffffffffffffffff1681526020019081526020016000205490506000600960008573ffffffffffffffffffffffffffffffffffffffff1673ffffffffffffffffffffffffffffffffffffffff1681526020019081526020016000205490506000600560009054906101000a900473ffffffffffffffffffffffffffffffffffffffff1673ffffffffffffffffffffffffffffffffffffffff1663313ce5676040518163ffffffff1660e01b815260040160206040518083038186803b15801561108a57600080fd5b505afa15801561109e573d6000803e3d6000fd5b505050506040513d601f19601f820116820180604052508101906110c29190611279565b60ff16905080600a6110d49190611545565b6001546110e191906116ae565b6000548483600a6110f29190611545565b85436110fe9190611708565b61110891906116ae565b61111291906116ae565b61111c91906116ae565b61112691906114c1565b9350505050919050565b60008135905061113f816118ba565b92915050565b600081519050611154816118d1565b92915050565b600081359050611169816118e8565b92915050565b60008151905061117e816118e8565b92915050565b600081519050611193816118ff565b92915050565b6000602082840312156111ab57600080fd5b60006111b984828501611130565b91505092915050565b6000602082840312156111d457600080fd5b60006111e284828501611145565b91505092915050565b6000602082840312156111fd57600080fd5b600061120b8482850161115a565b91505092915050565b60006020828403121561122657600080fd5b60006112348482850161116f565b91505092915050565b6000806040838503121561125057600080fd5b600061125e8582860161115a565b925050602061126f8582860161115a565b9150509250929050565b60006020828403121561128b57600080fd5b600061129984828501611184565b91505092915050565b6112ab8161173c565b82525050565b6112ba81611791565b82525050565b6112c9816117b5565b82525050565b6112d8816117d9565b82525050565b60006112eb60128361145a565b91506112f682611868565b602082019050919050565b600061130e601b8361145a565b915061131982611891565b602082019050919050565b61132d8161177a565b82525050565b600060208201905061134860008301846112a2565b92915050565b600060608201905061136360008301866112a2565b61137060208301856112a2565b61137d6040830184611324565b949350505050565b600060408201905061139a60008301856112a2565b6113a76020830184611324565b9392505050565b60006020820190506113c360008301846112b1565b92915050565b60006020820190506113de60008301846112c0565b92915050565b60006020820190506113f960008301846112cf565b92915050565b60006020820190508181036000830152611418816112de565b9050919050565b6000602082019050818103600083015261143881611301565b9050919050565b60006020820190506114546000830184611324565b92915050565b600082825260208201905092915050565b60006114768261177a565b91506114818361177a565b9250827fffffffffffffffffffffffffffffffffffffffffffffffffffffffffffffffff038211156114b6576114b56117fd565b5b828201905092915050565b60006114cc8261177a565b91506114d78361177a565b9250826114e7576114e661182c565b5b828204905092915050565b6000808291508390505b600185111561153c57808604811115611518576115176117fd565b5b60018516156115275780820291505b80810290506115358561185b565b94506114fc565b94509492505050565b60006115508261177a565b915061155b8361177a565b92506115887fffffffffffffffffffffffffffffffffffffffffffffffffffffffffffffffff84846115db565b905092915050565b600061159b8261177a565b91506115a683611784565b92506115d37fffffffffffffffffffffffffffffffffffffffffffffffffffffffffffffffff84846115db565b905092915050565b6000826115eb57600190506116a7565b816115f957600090506116a7565b816001811461160f576002811461161957611648565b60019150506116a7565b60ff84111561162b5761162a6117fd565b5b8360020a915084821115611642576116416117fd565b5b506116a7565b5060208310610133831016604e8410600b841016171561167d5782820a905083811115611678576116776117fd565b5b6116a7565b61168a84848460016114f2565b925090508184048111156116a1576116a06117fd565b5b81810290505b9392505050565b60006116b98261177a565b91506116c48361177a565b9250817fffffffffffffffffffffffffffffffffffffffffffffffffffffffffffffffff04831182151516156116fd576116fc6117fd565b5b828202905092915050565b60006117138261177a565b915061171e8361177a565b925082821015611731576117306117fd565b5b828203905092915050565b60006117478261175a565b9050919050565b60008115159050919050565b600073ffffffffffffffffffffffffffffffffffffffff82169050919050565b6000819050919050565b600060ff82169050919050565b600061179c826117a3565b9050919050565b60006117ae8261175a565b9050919050565b60006117c0826117c7565b9050919050565b60006117d28261175a565b9050919050565b60006117e4826117eb565b9050919050565b60006117f68261175a565b9050919050565b7f4e487b7100000000000000000000000000000000000000000000000000000000600052601160045260246000fd5b7f4e487b7100000000000000000000000000000000000000000000000000000000600052601260045260246000fd5b60008160011c9050919050565b7f46617563657420696e20636f6f6c646f776e0000000000000000000000000000600082015250565b7f4e6f7420656e6f756768206465706f736974656420746f6b656e730000000000600082015250565b6118c38161173c565b81146118ce57600080fd5b50565b6118da8161174e565b81146118e557600080fd5b50565b6118f18161177a565b81146118fc57600080fd5b50565b61190881611784565b811461191357600080fd5b5056fea26469706673582212208aebca5f633d4612c1413b855bbe4899d404e54b83ff875dd71b30a873e41d5264736f6c63430008020033",
  "immutableReferences": {},
  "source": "// SPDX-License-Identifier: UNLICENSED\npragma solidity ^0.8.2;\n\nimport \"./TokenFaucet.sol\";\nimport \"./TokenPool.sol\";\nimport \"./TokenDjango.sol\";\n\ncontract DjangoApp {\n    // Constants\n    uint REWARD_PER_BLOCK = 1;\n    uint FAUCET_AMOUNT = 100;\n    // Faucet tokens\n    TokenFaucet public tokenA;\n    TokenFaucet public tokenB;\n\n    // Pool token\n    TokenPool public tokenAB;\n\n    // DApp native token (reward)\n    TokenDjango public tokenDjango;\n\n    // Last time an address used the faucet (it uses block.timestamp)\n    mapping(address => uint256) private lastTimeFaucet;\n\n    // Deposited pool tokens per accounts\n    mapping(address => uint256) private depositedTokenBalances;\n\n    // Django tokens earned (not withdrawn)\n    mapping(address => uint256) private earnedDjangoBalances;\n\n    // Last block update per address\n    mapping(address => uint256) private lastBlockUpdate;\n\n\n    constructor(address _tokenA, address _tokenB, address _tokenAB, address _tokenDjango) {\n        tokenA = TokenFaucet(_tokenA);\n        tokenB = TokenFaucet(_tokenB);\n        tokenAB = TokenPool(_tokenAB);\n        tokenDjango = TokenDjango(_tokenDjango);\n    }\n\n    // Faucet section: mints faucet tokens for the account that requested them, if at least 24 hours\n    // are passed from the last time the account used this function\n    function useFaucet() external {\n        require(block.timestamp >= lastTimeFaucet[msg.sender] + (24 * 60 * 60), \"Faucet in cooldown\");\n        \n        lastTimeFaucet[msg.sender] = block.timestamp;\n        \n        tokenA.mint(msg.sender, FAUCET_AMOUNT * 10 ** tokenA.decimals());\n        tokenB.mint(msg.sender, FAUCET_AMOUNT * 10 ** tokenB.decimals());\n    }\n\n    // Swapper section: receives faucet tokens and mints pool tokens (ratio 1:1)\n    function swapFaucetTokensForPoolTokens(uint amountTokenA_, uint amountTokenB_) external {\n        // Amounts of tokens have to be the same, swap is always 1:1 ratio\n        require(amountTokenA_ == amountTokenB_);\n\n        tokenA.transferFrom(msg.sender, address(this), amountTokenA_);\n        tokenB.transferFrom(msg.sender, address(this), amountTokenB_);\n        tokenAB.mint(msg.sender, amountTokenA_);\n    }\n\n    // Or viceversa\n    function swapPoolTokensForFaucetTokens(uint amountTokenAB_) external {\n        tokenAB.burnFrom(msg.sender, amountTokenAB_);\n\n        tokenA.transfer(msg.sender, amountTokenAB_);\n        tokenB.transfer(address(this), amountTokenAB_);\n    }\n\n    // \n    function calculateDjangoEarned(address account_) internal view returns (uint) {\n        uint deposited = depositedTokenBalances[account_];\n        uint lastBlock = lastBlockUpdate[account_];\n        uint decimals = tokenDjango.decimals();\n\n        return ((block.number - lastBlock ) * (10 ** decimals) * deposited * REWARD_PER_BLOCK) / (FAUCET_AMOUNT * 10 ** decimals);\n    }\n\n    function updateDjangoEarned(address account_, uint amount_) internal {\n        earnedDjangoBalances[account_] = amount_;\n        lastBlockUpdate[account_] = block.number;\n    }\n\n    function getDjangoEarned(address account_) external view returns (uint) {\n        return earnedDjangoBalances[account_] + calculateDjangoEarned(account_);\n    }\n\n    // Deposit: takes the pool tokens and keeps track of them\n    function deposit(uint amount_)  external {\n        tokenAB.transferFrom(msg.sender, address(this), amount_);\n\n        updateDjangoEarned(msg.sender, this.getDjangoEarned(msg.sender));\n        depositedTokenBalances[msg.sender] += amount_;\n    }\n\n    // Withdraw: gives back the amount of pool tokens requested back\n    function withdraw(uint amount_)  external {\n        require(depositedTokenBalances[msg.sender] >= amount_, \"Not enough deposited tokens\");\n\n        updateDjangoEarned(msg.sender, this.getDjangoEarned(msg.sender));\n        depositedTokenBalances[msg.sender] -= amount_;\n\n        tokenAB.transfer(msg.sender, amount_);\n    }\n\n    // Claim: it transfer all the earned djangos to the requester\n    function claim() external {\n        uint djangoEarned = this.getDjangoEarned(msg.sender);\n\n        updateDjangoEarned(msg.sender, 0);\n\n        tokenDjango.mint(msg.sender, djangoEarned);     \n    }\n}",
  "sourcePath": "/home/lanor/Consensys/0.project/blockchain-developer-bootcamp-final-project/DjangoApp/contracts/DjangoApp.sol",
  "compiler": {
    "name": "solc",
    "version": "0.8.2+commit.661d1103.Emscripten.clang"
  },
  "schemaVersion": "3.4.3",
  "updatedAt": "2021-11-12T11:08:49.056Z",
  "devdoc": {
    "kind": "dev",
    "methods": {},
    "version": 1
  },
  "userdoc": {
    "kind": "user",
    "methods": {},
    "version": 1
  }
}