{
  "contractName": "DjangoApp",
  "abi": [
    {
      "inputs": [
        {
          "internalType": "address",
          "name": "_tokenA",
          "type": "address"
        },
        {
          "internalType": "address",
          "name": "_tokenB",
          "type": "address"
        },
        {
          "internalType": "address",
          "name": "_tokenDjango",
          "type": "address"
        }
      ],
      "stateMutability": "nonpayable",
      "type": "constructor"
    },
    {
      "anonymous": false,
      "inputs": [
        {
          "indexed": true,
          "internalType": "address",
          "name": "from",
          "type": "address"
        },
        {
          "indexed": false,
          "internalType": "uint256",
          "name": "amount",
          "type": "uint256"
        }
      ],
      "name": "Claim",
      "type": "event"
    },
    {
      "anonymous": false,
      "inputs": [
        {
          "indexed": true,
          "internalType": "address",
          "name": "from",
          "type": "address"
        },
        {
          "indexed": false,
          "internalType": "uint256",
          "name": "amount",
          "type": "uint256"
        }
      ],
      "name": "Deposit",
      "type": "event"
    },
    {
      "anonymous": false,
      "inputs": [
        {
          "indexed": true,
          "internalType": "address",
          "name": "to",
          "type": "address"
        },
        {
          "indexed": false,
          "internalType": "uint256",
          "name": "timestamp",
          "type": "uint256"
        }
      ],
      "name": "FaucetUsed",
      "type": "event"
    },
    {
      "anonymous": false,
      "inputs": [
        {
          "indexed": true,
          "internalType": "address",
          "name": "from",
          "type": "address"
        },
        {
          "indexed": false,
          "internalType": "uint256",
          "name": "amount",
          "type": "uint256"
        }
      ],
      "name": "Withdraw",
      "type": "event"
    },
    {
      "inputs": [],
      "name": "FAUCET_AMOUNT",
      "outputs": [
        {
          "internalType": "uint256",
          "name": "",
          "type": "uint256"
        }
      ],
      "stateMutability": "view",
      "type": "function",
      "constant": true
    },
    {
      "inputs": [],
      "name": "REWARD_PER_BLOCK",
      "outputs": [
        {
          "internalType": "uint256",
          "name": "",
          "type": "uint256"
        }
      ],
      "stateMutability": "view",
      "type": "function",
      "constant": true
    },
    {
      "inputs": [],
      "name": "tokenA",
      "outputs": [
        {
          "internalType": "contract TokenA",
          "name": "",
          "type": "address"
        }
      ],
      "stateMutability": "view",
      "type": "function",
      "constant": true
    },
    {
      "inputs": [],
      "name": "tokenB",
      "outputs": [
        {
          "internalType": "contract TokenB",
          "name": "",
          "type": "address"
        }
      ],
      "stateMutability": "view",
      "type": "function",
      "constant": true
    },
    {
      "inputs": [],
      "name": "tokenDjango",
      "outputs": [
        {
          "internalType": "contract TokenDjango",
          "name": "",
          "type": "address"
        }
      ],
      "stateMutability": "view",
      "type": "function",
      "constant": true
    },
    {
      "inputs": [],
      "name": "useFaucet",
      "outputs": [],
      "stateMutability": "nonpayable",
      "type": "function"
    },
    {
      "inputs": [
        {
          "internalType": "uint256",
          "name": "amountTokenA_",
          "type": "uint256"
        }
      ],
      "name": "swapFaucetTokensForDepositTokens",
      "outputs": [],
      "stateMutability": "nonpayable",
      "type": "function"
    },
    {
      "inputs": [
        {
          "internalType": "uint256",
          "name": "amountTokenB_",
          "type": "uint256"
        }
      ],
      "name": "swapPoolTokensForFaucetTokens",
      "outputs": [],
      "stateMutability": "nonpayable",
      "type": "function"
    },
    {
      "inputs": [
        {
          "internalType": "address",
          "name": "account_",
          "type": "address"
        }
      ],
      "name": "getDjangoEarned",
      "outputs": [
        {
          "internalType": "uint256",
          "name": "",
          "type": "uint256"
        }
      ],
      "stateMutability": "view",
      "type": "function",
      "constant": true
    },
    {
      "inputs": [
        {
          "internalType": "uint256",
          "name": "amount_",
          "type": "uint256"
        }
      ],
      "name": "deposit",
      "outputs": [],
      "stateMutability": "nonpayable",
      "type": "function"
    },
    {
      "inputs": [
        {
          "internalType": "uint256",
          "name": "amount_",
          "type": "uint256"
        }
      ],
      "name": "withdraw",
      "outputs": [],
      "stateMutability": "nonpayable",
      "type": "function"
    },
    {
      "inputs": [],
      "name": "claim",
      "outputs": [],
      "stateMutability": "nonpayable",
      "type": "function"
    }
  ],
  "bytecode": "0x6080604052600160005560646001553480156200001b57600080fd5b506040516200197938038062001979833981810160405281019062000041919062000124565b82600260006101000a81548173ffffffffffffffffffffffffffffffffffffffff021916908373ffffffffffffffffffffffffffffffffffffffff16021790555081600360006101000a81548173ffffffffffffffffffffffffffffffffffffffff021916908373ffffffffffffffffffffffffffffffffffffffff16021790555080600460006101000a81548173ffffffffffffffffffffffffffffffffffffffff021916908373ffffffffffffffffffffffffffffffffffffffff160217905550505050620001c8565b6000815190506200011e81620001ae565b92915050565b6000806000606084860312156200013a57600080fd5b60006200014a868287016200010d565b93505060206200015d868287016200010d565b925050604062000170868287016200010d565b9150509250925092565b600062000187826200018e565b9050919050565b600073ffffffffffffffffffffffffffffffffffffffff82169050919050565b620001b9816200017a565b8114620001c557600080fd5b50565b6117a180620001d86000396000f3fe608060405234801561001057600080fd5b50600436106100b45760003560e01c80635f64b55b116100715780635f64b55b14610141578063766976401461015f57806387239fcd1461017d578063975532dc14610199578063b6b55f25146101b7578063cbc2da91146101d3576100b4565b80630fc63d10146100b957806312dbde94146100d757806329814998146100f55780632e1a7d4d146100ff5780632e4fdf331461011b5780634e71d92d14610137575b600080fd5b6100c1610203565b6040516100ce9190611203565b60405180910390f35b6100df610229565b6040516100ec9190611239565b60405180910390f35b6100fd61024f565b005b6101196004803603810190610114919061107c565b6104ba565b005b6101356004803603810190610130919061107c565b610725565b005b61013f610869565b005b6101496109e1565b604051610156919061121e565b60405180910390f35b610167610a07565b6040516101749190611294565b60405180910390f35b6101976004803603810190610192919061107c565b610a0d565b005b6101a1610b4f565b6040516101ae9190611294565b60405180910390f35b6101d160048036038101906101cc919061107c565b610b55565b005b6101ed60048036038101906101e8919061102a565b610d40565b6040516101fa9190611294565b60405180910390f35b600260009054906101000a900473ffffffffffffffffffffffffffffffffffffffff1681565b600460009054906101000a900473ffffffffffffffffffffffffffffffffffffffff1681565b62015180600560003373ffffffffffffffffffffffffffffffffffffffff1673ffffffffffffffffffffffffffffffffffffffff1681526020019081526020016000205461029d91906112c0565b4210156102df576040517f08c379a00000000000000000000000000000000000000000000000000000000081526004016102d690611254565b60405180910390fd5b42600560003373ffffffffffffffffffffffffffffffffffffffff1673ffffffffffffffffffffffffffffffffffffffff16815260200190815260200160002081905550600260009054906101000a900473ffffffffffffffffffffffffffffffffffffffff1673ffffffffffffffffffffffffffffffffffffffff166340c10f1933600260009054906101000a900473ffffffffffffffffffffffffffffffffffffffff1673ffffffffffffffffffffffffffffffffffffffff1663313ce5676040518163ffffffff1660e01b815260040160206040518083038186803b1580156103ca57600080fd5b505afa1580156103de573d6000803e3d6000fd5b505050506040513d601f19601f8201168201806040525081019061040291906110ce565b600a61040e91906113e5565b60015461041b9190611503565b6040518363ffffffff1660e01b81526004016104389291906111da565b600060405180830381600087803b15801561045257600080fd5b505af1158015610466573d6000803e3d6000fd5b505050503373ffffffffffffffffffffffffffffffffffffffff167fc471df7d13ab46c73ec6eb2da0f35f84077f20d50243ba09a714b82cffc54de9426040516104b09190611294565b60405180910390a2565b80600660003373ffffffffffffffffffffffffffffffffffffffff1673ffffffffffffffffffffffffffffffffffffffff16815260200190815260200160002054101561053c576040517f08c379a000000000000000000000000000000000000000000000000000000000815260040161053390611274565b60405180910390fd5b6105ce333073ffffffffffffffffffffffffffffffffffffffff1663cbc2da91336040518263ffffffff1660e01b81526004016105799190611188565b60206040518083038186803b15801561059157600080fd5b505afa1580156105a5573d6000803e3d6000fd5b505050506040513d601f19601f820116820180604052508101906105c991906110a5565b610d9c565b80600660003373ffffffffffffffffffffffffffffffffffffffff1673ffffffffffffffffffffffffffffffffffffffff168152602001908152602001600020600082825461061d919061155d565b92505081905550600360009054906101000a900473ffffffffffffffffffffffffffffffffffffffff1673ffffffffffffffffffffffffffffffffffffffff1663a9059cbb33836040518363ffffffff1660e01b81526004016106819291906111da565b602060405180830381600087803b15801561069b57600080fd5b505af11580156106af573d6000803e3d6000fd5b505050506040513d601f19601f820116820180604052508101906106d39190611053565b503373ffffffffffffffffffffffffffffffffffffffff167f884edad9ce6fa2440d8a54cc123490eb96d2768479d49ff9c7366125a94243648260405161071a9190611294565b60405180910390a250565b600260009054906101000a900473ffffffffffffffffffffffffffffffffffffffff1673ffffffffffffffffffffffffffffffffffffffff166323b872dd3330846040518463ffffffff1660e01b8152600401610784939291906111a3565b602060405180830381600087803b15801561079e57600080fd5b505af11580156107b2573d6000803e3d6000fd5b505050506040513d601f19601f820116820180604052508101906107d69190611053565b50600360009054906101000a900473ffffffffffffffffffffffffffffffffffffffff1673ffffffffffffffffffffffffffffffffffffffff166340c10f1933836040518363ffffffff1660e01b81526004016108349291906111da565b600060405180830381600087803b15801561084e57600080fd5b505af1158015610862573d6000803e3d6000fd5b5050505050565b60003073ffffffffffffffffffffffffffffffffffffffff1663cbc2da91336040518263ffffffff1660e01b81526004016108a49190611188565b60206040518083038186803b1580156108bc57600080fd5b505afa1580156108d0573d6000803e3d6000fd5b505050506040513d601f19601f820116820180604052508101906108f491906110a5565b9050610901336000610d9c565b600460009054906101000a900473ffffffffffffffffffffffffffffffffffffffff1673ffffffffffffffffffffffffffffffffffffffff166340c10f1933836040518363ffffffff1660e01b815260040161095e9291906111da565b600060405180830381600087803b15801561097857600080fd5b505af115801561098c573d6000803e3d6000fd5b505050503373ffffffffffffffffffffffffffffffffffffffff167f47cee97cb7acd717b3c0aa1435d004cd5b3c8c57d70dbceb4e4458bbd60e39d4826040516109d69190611294565b60405180910390a250565b600360009054906101000a900473ffffffffffffffffffffffffffffffffffffffff1681565b60015481565b600360009054906101000a900473ffffffffffffffffffffffffffffffffffffffff1673ffffffffffffffffffffffffffffffffffffffff166379cc679033836040518363ffffffff1660e01b8152600401610a6a9291906111da565b600060405180830381600087803b158015610a8457600080fd5b505af1158015610a98573d6000803e3d6000fd5b50505050600260009054906101000a900473ffffffffffffffffffffffffffffffffffffffff1673ffffffffffffffffffffffffffffffffffffffff1663a9059cbb33836040518363ffffffff1660e01b8152600401610af99291906111da565b602060405180830381600087803b158015610b1357600080fd5b505af1158015610b27573d6000803e3d6000fd5b505050506040513d601f19601f82011682018060405250810190610b4b9190611053565b5050565b60005481565b600360009054906101000a900473ffffffffffffffffffffffffffffffffffffffff1673ffffffffffffffffffffffffffffffffffffffff166323b872dd3330846040518463ffffffff1660e01b8152600401610bb4939291906111a3565b602060405180830381600087803b158015610bce57600080fd5b505af1158015610be2573d6000803e3d6000fd5b505050506040513d601f19601f82011682018060405250810190610c069190611053565b50610c99333073ffffffffffffffffffffffffffffffffffffffff1663cbc2da91336040518263ffffffff1660e01b8152600401610c449190611188565b60206040518083038186803b158015610c5c57600080fd5b505afa158015610c70573d6000803e3d6000fd5b505050506040513d601f19601f82011682018060405250810190610c9491906110a5565b610d9c565b80600660003373ffffffffffffffffffffffffffffffffffffffff1673ffffffffffffffffffffffffffffffffffffffff1681526020019081526020016000206000828254610ce891906112c0565b925050819055503373ffffffffffffffffffffffffffffffffffffffff167fe1fffcc4923d04b559f4d29a8bfc6cda04eb5b0d3c460751c2402c5c5cc9109c82604051610d359190611294565b60405180910390a250565b6000610d4b82610e28565b600760008473ffffffffffffffffffffffffffffffffffffffff1673ffffffffffffffffffffffffffffffffffffffff16815260200190815260200160002054610d9591906112c0565b9050919050565b80600760008473ffffffffffffffffffffffffffffffffffffffff1673ffffffffffffffffffffffffffffffffffffffff1681526020019081526020016000208190555043600860008473ffffffffffffffffffffffffffffffffffffffff1673ffffffffffffffffffffffffffffffffffffffff168152602001908152602001600020819055505050565b600080600660008473ffffffffffffffffffffffffffffffffffffffff1673ffffffffffffffffffffffffffffffffffffffff1681526020019081526020016000205490506000600860008573ffffffffffffffffffffffffffffffffffffffff1673ffffffffffffffffffffffffffffffffffffffff1681526020019081526020016000205490506000600460009054906101000a900473ffffffffffffffffffffffffffffffffffffffff1673ffffffffffffffffffffffffffffffffffffffff1663313ce5676040518163ffffffff1660e01b815260040160206040518083038186803b158015610f1b57600080fd5b505afa158015610f2f573d6000803e3d6000fd5b505050506040513d601f19601f82011682018060405250810190610f5391906110ce565b60ff16905080600a610f65919061139a565b600154610f729190611503565b6000548483600a610f83919061139a565b8543610f8f919061155d565b610f999190611503565b610fa39190611503565b610fad9190611503565b610fb79190611316565b9350505050919050565b600081359050610fd08161170f565b92915050565b600081519050610fe581611726565b92915050565b600081359050610ffa8161173d565b92915050565b60008151905061100f8161173d565b92915050565b60008151905061102481611754565b92915050565b60006020828403121561103c57600080fd5b600061104a84828501610fc1565b91505092915050565b60006020828403121561106557600080fd5b600061107384828501610fd6565b91505092915050565b60006020828403121561108e57600080fd5b600061109c84828501610feb565b91505092915050565b6000602082840312156110b757600080fd5b60006110c584828501611000565b91505092915050565b6000602082840312156110e057600080fd5b60006110ee84828501611015565b91505092915050565b61110081611591565b82525050565b61110f816115e6565b82525050565b61111e8161160a565b82525050565b61112d8161162e565b82525050565b60006111406012836112af565b915061114b826116bd565b602082019050919050565b6000611163601b836112af565b915061116e826116e6565b602082019050919050565b611182816115cf565b82525050565b600060208201905061119d60008301846110f7565b92915050565b60006060820190506111b860008301866110f7565b6111c560208301856110f7565b6111d26040830184611179565b949350505050565b60006040820190506111ef60008301856110f7565b6111fc6020830184611179565b9392505050565b60006020820190506112186000830184611106565b92915050565b60006020820190506112336000830184611115565b92915050565b600060208201905061124e6000830184611124565b92915050565b6000602082019050818103600083015261126d81611133565b9050919050565b6000602082019050818103600083015261128d81611156565b9050919050565b60006020820190506112a96000830184611179565b92915050565b600082825260208201905092915050565b60006112cb826115cf565b91506112d6836115cf565b9250827fffffffffffffffffffffffffffffffffffffffffffffffffffffffffffffffff0382111561130b5761130a611652565b5b828201905092915050565b6000611321826115cf565b915061132c836115cf565b92508261133c5761133b611681565b5b828204905092915050565b6000808291508390505b60018511156113915780860481111561136d5761136c611652565b5b600185161561137c5780820291505b808102905061138a856116b0565b9450611351565b94509492505050565b60006113a5826115cf565b91506113b0836115cf565b92506113dd7fffffffffffffffffffffffffffffffffffffffffffffffffffffffffffffffff8484611430565b905092915050565b60006113f0826115cf565b91506113fb836115d9565b92506114287fffffffffffffffffffffffffffffffffffffffffffffffffffffffffffffffff8484611430565b905092915050565b60008261144057600190506114fc565b8161144e57600090506114fc565b8160018114611464576002811461146e5761149d565b60019150506114fc565b60ff8411156114805761147f611652565b5b8360020a91508482111561149757611496611652565b5b506114fc565b5060208310610133831016604e8410600b84101617156114d25782820a9050838111156114cd576114cc611652565b5b6114fc565b6114df8484846001611347565b925090508184048111156114f6576114f5611652565b5b81810290505b9392505050565b600061150e826115cf565b9150611519836115cf565b9250817fffffffffffffffffffffffffffffffffffffffffffffffffffffffffffffffff048311821515161561155257611551611652565b5b828202905092915050565b6000611568826115cf565b9150611573836115cf565b92508282101561158657611585611652565b5b828203905092915050565b600061159c826115af565b9050919050565b60008115159050919050565b600073ffffffffffffffffffffffffffffffffffffffff82169050919050565b6000819050919050565b600060ff82169050919050565b60006115f1826115f8565b9050919050565b6000611603826115af565b9050919050565b60006116158261161c565b9050919050565b6000611627826115af565b9050919050565b600061163982611640565b9050919050565b600061164b826115af565b9050919050565b7f4e487b7100000000000000000000000000000000000000000000000000000000600052601160045260246000fd5b7f4e487b7100000000000000000000000000000000000000000000000000000000600052601260045260246000fd5b60008160011c9050919050565b7f46617563657420696e20636f6f6c646f776e0000000000000000000000000000600082015250565b7f4e6f7420656e6f756768206465706f736974656420746f6b656e730000000000600082015250565b61171881611591565b811461172357600080fd5b50565b61172f816115a3565b811461173a57600080fd5b50565b611746816115cf565b811461175157600080fd5b50565b61175d816115d9565b811461176857600080fd5b5056fea2646970667358221220b730f25ef3dbdcaadb3fa8d6d58b63c0bf155fefd977db14a658a5fa36a8f72064736f6c63430008020033",
  "immutableReferences": {},
  "source": "// SPDX-License-Identifier: UNLICENSED\npragma solidity ^0.8.2;\n\nimport \"./TokenA.sol\";\nimport \"./TokenB.sol\";\nimport \"./TokenDjango.sol\";\n\ncontract DjangoApp {\n    // Constants\n    uint public REWARD_PER_BLOCK = 1;\n    uint public FAUCET_AMOUNT = 100;\n\n    // Faucet token\n    TokenA public tokenA;\n\n    // Depposit token\n    TokenB public tokenB;\n\n    // DApp native token (reward)\n    TokenDjango public tokenDjango;\n\n    // Last time an address used the faucet (it uses block.timestamp)\n    mapping(address => uint256) private lastTimeFaucet;\n\n    // Deposited pool tokens per accounts\n    mapping(address => uint256) private depositedTokenBalances;\n\n    // Django tokens earned (not withdrawn)\n    mapping(address => uint256) private earnedDjangoBalances;\n\n    // Last block update per address\n    mapping(address => uint256) private lastBlockUpdate;\n\n    event FaucetUsed(address indexed to, uint timestamp);\n    event Deposit(address indexed from, uint amount);\n    event Withdraw(address indexed from, uint amount);\n    event Claim(address indexed from, uint amount);\n\n    constructor(address _tokenA, address _tokenB, address _tokenDjango) {\n        tokenA = TokenA(_tokenA);\n        tokenB = TokenB(_tokenB);\n        tokenDjango = TokenDjango(_tokenDjango);\n    }\n\n    // Faucet section: mints faucet tokens for the account that requested them, if at least 24 hours\n    // are passed from the last time the account used this function\n    function useFaucet() external {\n        require(block.timestamp >= lastTimeFaucet[msg.sender] + (24 * 60 * 60), \"Faucet in cooldown\");\n        \n        lastTimeFaucet[msg.sender] = block.timestamp;\n        \n        tokenA.mint(msg.sender, FAUCET_AMOUNT * 10 ** tokenA.decimals());\n\n        emit FaucetUsed(msg.sender, block.timestamp);\n    }\n\n    // Swapper section: receives faucet tokens and mints pool tokens (ratio 1:1)\n    function swapFaucetTokensForDepositTokens(uint amountTokenA_) external {\n        tokenA.transferFrom(msg.sender, address(this), amountTokenA_);\n        tokenB.mint(msg.sender, amountTokenA_);\n    }\n\n    // Or viceversa\n    function swapPoolTokensForFaucetTokens(uint amountTokenB_) external {\n        tokenB.burnFrom(msg.sender, amountTokenB_);\n        tokenA.transfer(msg.sender, amountTokenB_);\n    }\n\n    function calculateDjangoEarned(address account_) internal view returns (uint) {\n        uint deposited = depositedTokenBalances[account_];\n        uint lastBlock = lastBlockUpdate[account_];\n        uint decimals = tokenDjango.decimals();\n\n        return ((block.number - lastBlock ) * (10 ** decimals) * deposited * REWARD_PER_BLOCK) / (FAUCET_AMOUNT * 10 ** decimals);\n    }\n\n    function updateDjangoEarned(address account_, uint amount_) internal {\n        earnedDjangoBalances[account_] = amount_;\n        lastBlockUpdate[account_] = block.number;\n    }\n\n    function getDjangoEarned(address account_) external view returns (uint) {\n        return earnedDjangoBalances[account_] + calculateDjangoEarned(account_);\n    }\n\n    // Deposit: takes the deposit tokens and keeps track of them\n    function deposit(uint amount_)  external {\n        tokenB.transferFrom(msg.sender, address(this), amount_);\n\n        updateDjangoEarned(msg.sender, this.getDjangoEarned(msg.sender));\n        depositedTokenBalances[msg.sender] += amount_;\n\n        emit Deposit(msg.sender, amount_);\n    }\n\n    // Withdraw: gives back the amount of pool tokens requested back\n    function withdraw(uint amount_)  external {\n        require(depositedTokenBalances[msg.sender] >= amount_, \"Not enough deposited tokens\");\n\n        updateDjangoEarned(msg.sender, this.getDjangoEarned(msg.sender));\n        depositedTokenBalances[msg.sender] -= amount_;\n\n        tokenB.transfer(msg.sender, amount_);\n\n        emit Withdraw(msg.sender, amount_);\n    }\n\n    // Claim: it transfer all the earned djangos to the requester\n    function claim() external {\n        uint djangoEarned = this.getDjangoEarned(msg.sender);\n\n        updateDjangoEarned(msg.sender, 0);\n\n        tokenDjango.mint(msg.sender, djangoEarned);\n\n        emit Claim(msg.sender, djangoEarned);\n    }\n}",
  "sourcePath": "/home/lanor/Consensys/0.project/blockchain-developer-bootcamp-final-project/DjangoApp/contracts/DjangoApp.sol",
  "compiler": {
    "name": "solc",
    "version": "0.8.2+commit.661d1103.Emscripten.clang"
  },
  "schemaVersion": "3.4.3",
  "updatedAt": "2021-11-16T15:00:49.741Z",
  "networkType": "ethereum",
  "devdoc": {
    "kind": "dev",
    "methods": {},
    "version": 1
  },
  "userdoc": {
    "kind": "user",
    "methods": {},
    "version": 1
  }
}