{
  "contractName": "DjangoApp",
  "abi": [
    {
      "inputs": [
        {
          "internalType": "address",
          "name": "_tokenA",
          "type": "address"
        },
        {
          "internalType": "address",
          "name": "_tokenB",
          "type": "address"
        },
        {
          "internalType": "address",
          "name": "_tokenDjango",
          "type": "address"
        }
      ],
      "stateMutability": "nonpayable",
      "type": "constructor"
    },
    {
      "anonymous": false,
      "inputs": [
        {
          "indexed": true,
          "internalType": "address",
          "name": "from",
          "type": "address"
        },
        {
          "indexed": false,
          "internalType": "uint256",
          "name": "amount",
          "type": "uint256"
        }
      ],
      "name": "Claim",
      "type": "event"
    },
    {
      "anonymous": false,
      "inputs": [
        {
          "indexed": true,
          "internalType": "address",
          "name": "from",
          "type": "address"
        },
        {
          "indexed": false,
          "internalType": "uint256",
          "name": "amount",
          "type": "uint256"
        }
      ],
      "name": "Deposit",
      "type": "event"
    },
    {
      "anonymous": false,
      "inputs": [
        {
          "indexed": true,
          "internalType": "address",
          "name": "from",
          "type": "address"
        },
        {
          "indexed": false,
          "internalType": "uint256",
          "name": "timestamp",
          "type": "uint256"
        }
      ],
      "name": "FaucetUsed",
      "type": "event"
    },
    {
      "anonymous": false,
      "inputs": [
        {
          "indexed": true,
          "internalType": "address",
          "name": "previousOwner",
          "type": "address"
        },
        {
          "indexed": true,
          "internalType": "address",
          "name": "newOwner",
          "type": "address"
        }
      ],
      "name": "OwnershipTransferred",
      "type": "event"
    },
    {
      "anonymous": false,
      "inputs": [
        {
          "indexed": false,
          "internalType": "address",
          "name": "account",
          "type": "address"
        }
      ],
      "name": "Paused",
      "type": "event"
    },
    {
      "anonymous": false,
      "inputs": [
        {
          "indexed": false,
          "internalType": "address",
          "name": "account",
          "type": "address"
        }
      ],
      "name": "Unpaused",
      "type": "event"
    },
    {
      "anonymous": false,
      "inputs": [
        {
          "indexed": true,
          "internalType": "address",
          "name": "from",
          "type": "address"
        },
        {
          "indexed": false,
          "internalType": "uint256",
          "name": "amount",
          "type": "uint256"
        }
      ],
      "name": "Withdraw",
      "type": "event"
    },
    {
      "inputs": [],
      "name": "FAUCET_AMOUNT",
      "outputs": [
        {
          "internalType": "uint256",
          "name": "",
          "type": "uint256"
        }
      ],
      "stateMutability": "view",
      "type": "function"
    },
    {
      "inputs": [],
      "name": "REWARD_PER_BLOCK",
      "outputs": [
        {
          "internalType": "uint256",
          "name": "",
          "type": "uint256"
        }
      ],
      "stateMutability": "view",
      "type": "function"
    },
    {
      "inputs": [],
      "name": "owner",
      "outputs": [
        {
          "internalType": "address",
          "name": "",
          "type": "address"
        }
      ],
      "stateMutability": "view",
      "type": "function"
    },
    {
      "inputs": [],
      "name": "paused",
      "outputs": [
        {
          "internalType": "bool",
          "name": "",
          "type": "bool"
        }
      ],
      "stateMutability": "view",
      "type": "function"
    },
    {
      "inputs": [],
      "name": "renounceOwnership",
      "outputs": [],
      "stateMutability": "nonpayable",
      "type": "function"
    },
    {
      "inputs": [],
      "name": "tokenA",
      "outputs": [
        {
          "internalType": "contract TokenA",
          "name": "",
          "type": "address"
        }
      ],
      "stateMutability": "view",
      "type": "function"
    },
    {
      "inputs": [],
      "name": "tokenB",
      "outputs": [
        {
          "internalType": "contract TokenB",
          "name": "",
          "type": "address"
        }
      ],
      "stateMutability": "view",
      "type": "function"
    },
    {
      "inputs": [],
      "name": "tokenDjango",
      "outputs": [
        {
          "internalType": "contract TokenDjango",
          "name": "",
          "type": "address"
        }
      ],
      "stateMutability": "view",
      "type": "function"
    },
    {
      "inputs": [
        {
          "internalType": "address",
          "name": "newOwner",
          "type": "address"
        }
      ],
      "name": "transferOwnership",
      "outputs": [],
      "stateMutability": "nonpayable",
      "type": "function"
    },
    {
      "inputs": [],
      "name": "pause",
      "outputs": [],
      "stateMutability": "nonpayable",
      "type": "function"
    },
    {
      "inputs": [],
      "name": "unpause",
      "outputs": [],
      "stateMutability": "nonpayable",
      "type": "function"
    },
    {
      "inputs": [],
      "name": "useFaucet",
      "outputs": [],
      "stateMutability": "nonpayable",
      "type": "function"
    },
    {
      "inputs": [
        {
          "internalType": "uint256",
          "name": "amountTokenA_",
          "type": "uint256"
        }
      ],
      "name": "swapFaucetTokensForDepositTokens",
      "outputs": [],
      "stateMutability": "nonpayable",
      "type": "function"
    },
    {
      "inputs": [
        {
          "internalType": "uint256",
          "name": "amountTokenB_",
          "type": "uint256"
        }
      ],
      "name": "swapDepositTokensForFaucetTokens",
      "outputs": [],
      "stateMutability": "nonpayable",
      "type": "function"
    },
    {
      "inputs": [
        {
          "internalType": "address",
          "name": "account_",
          "type": "address"
        }
      ],
      "name": "depositedTokens",
      "outputs": [
        {
          "internalType": "uint256",
          "name": "",
          "type": "uint256"
        }
      ],
      "stateMutability": "view",
      "type": "function"
    },
    {
      "inputs": [
        {
          "internalType": "address",
          "name": "account_",
          "type": "address"
        }
      ],
      "name": "getDjangoEarned",
      "outputs": [
        {
          "internalType": "uint256",
          "name": "",
          "type": "uint256"
        }
      ],
      "stateMutability": "view",
      "type": "function"
    },
    {
      "inputs": [
        {
          "internalType": "uint256",
          "name": "amount_",
          "type": "uint256"
        }
      ],
      "name": "deposit",
      "outputs": [],
      "stateMutability": "nonpayable",
      "type": "function"
    },
    {
      "inputs": [
        {
          "internalType": "uint256",
          "name": "amount_",
          "type": "uint256"
        }
      ],
      "name": "withdraw",
      "outputs": [],
      "stateMutability": "nonpayable",
      "type": "function"
    },
    {
      "inputs": [],
      "name": "claim",
      "outputs": [],
      "stateMutability": "nonpayable",
      "type": "function"
    }
  ],
  "bytecode": "0x6080604052670de0b6b3a764000060025568056bc75e2d631000006003553480156200002a57600080fd5b50604051620021dd380380620021dd833981810160405281019062000050919062000241565b60016000819055506000600160006101000a81548160ff02191690831515021790555062000093620000876200015f60201b60201c565b6200016760201b60201c565b82600460006101000a81548173ffffffffffffffffffffffffffffffffffffffff021916908373ffffffffffffffffffffffffffffffffffffffff16021790555081600560006101000a81548173ffffffffffffffffffffffffffffffffffffffff021916908373ffffffffffffffffffffffffffffffffffffffff16021790555080600660006101000a81548173ffffffffffffffffffffffffffffffffffffffff021916908373ffffffffffffffffffffffffffffffffffffffff160217905550505050620002e5565b600033905090565b600060018054906101000a900473ffffffffffffffffffffffffffffffffffffffff169050816001806101000a81548173ffffffffffffffffffffffffffffffffffffffff021916908373ffffffffffffffffffffffffffffffffffffffff1602179055508173ffffffffffffffffffffffffffffffffffffffff168173ffffffffffffffffffffffffffffffffffffffff167f8be0079c531659141344cd1fd0a4f28419497f9722a3daafe3b4186f6b6457e060405160405180910390a35050565b6000815190506200023b81620002cb565b92915050565b6000806000606084860312156200025757600080fd5b600062000267868287016200022a565b93505060206200027a868287016200022a565b92505060406200028d868287016200022a565b9150509250925092565b6000620002a482620002ab565b9050919050565b600073ffffffffffffffffffffffffffffffffffffffff82169050919050565b620002d68162000297565b8114620002e257600080fd5b50565b611ee880620002f56000396000f3fe608060405234801561001057600080fd5b50600436106101215760003560e01c8063715018a6116100ad578063b6b55f2511610071578063b6b55f2514610262578063c326bf4f1461027e578063c8c97ab9146102ae578063cbc2da91146102ca578063f2fde38b146102fa57610121565b8063715018a6146101f457806376697640146101fe5780638456cb591461021c5780638da5cb5b14610226578063975532dc1461024457610121565b80632e4fdf33116100f45780632e4fdf33146101885780633f4ba83a146101a45780634e71d92d146101ae5780635c975abb146101b85780635f64b55b146101d657610121565b80630fc63d101461012657806312dbde941461014457806329814998146101625780632e1a7d4d1461016c575b600080fd5b61012e610316565b60405161013b91906119a4565b60405180910390f35b61014c61033c565b60405161015991906119da565b60405180910390f35b61016a610362565b005b6101866004803603810190610181919061176d565b61055f565b005b6101a2600480360381019061019d919061176d565b610812565b005b6101ac6109f4565b005b6101b6610a7a565b005b6101c0610c3a565b6040516101cd9190611989565b60405180910390f35b6101de610c51565b6040516101eb91906119bf565b60405180910390f35b6101fc610c77565b005b610206610cff565b6040516102139190611ad5565b60405180910390f35b610224610d05565b005b61022e610d8b565b60405161023b919061190e565b60405180910390f35b61024c610db3565b6040516102599190611ad5565b60405180910390f35b61027c6004803603810190610277919061176d565b610db9565b005b6102986004803603810190610293919061171b565b610fec565b6040516102a59190611ad5565b60405180910390f35b6102c860048036038101906102c3919061176d565b611035565b005b6102e460048036038101906102df919061171b565b611215565b6040516102f19190611ad5565b60405180910390f35b610314600480360381019061030f919061171b565b611271565b005b600460009054906101000a900473ffffffffffffffffffffffffffffffffffffffff1681565b600660009054906101000a900473ffffffffffffffffffffffffffffffffffffffff1681565b61036a610c3a565b156103aa576040517f08c379a00000000000000000000000000000000000000000000000000000000081526004016103a190611a55565b60405180910390fd5b62015180600760003373ffffffffffffffffffffffffffffffffffffffff1673ffffffffffffffffffffffffffffffffffffffff168152602001908152602001600020546103f89190611b01565b42101561043a576040517f08c379a000000000000000000000000000000000000000000000000000000000815260040161043190611a35565b60405180910390fd5b42600760003373ffffffffffffffffffffffffffffffffffffffff1673ffffffffffffffffffffffffffffffffffffffff16815260200190815260200160002081905550600460009054906101000a900473ffffffffffffffffffffffffffffffffffffffff1673ffffffffffffffffffffffffffffffffffffffff166340c10f19336003546040518363ffffffff1660e01b81526004016104dd929190611960565b600060405180830381600087803b1580156104f757600080fd5b505af115801561050b573d6000803e3d6000fd5b505050503373ffffffffffffffffffffffffffffffffffffffff167fc471df7d13ab46c73ec6eb2da0f35f84077f20d50243ba09a714b82cffc54de9426040516105559190611ad5565b60405180910390a2565b610567610c3a565b156105a7576040517f08c379a000000000000000000000000000000000000000000000000000000000815260040161059e90611a55565b60405180910390fd5b80600860003373ffffffffffffffffffffffffffffffffffffffff1673ffffffffffffffffffffffffffffffffffffffff168152602001908152602001600020541015610629576040517f08c379a000000000000000000000000000000000000000000000000000000000815260040161062090611a95565b60405180910390fd5b6106bb333073ffffffffffffffffffffffffffffffffffffffff1663cbc2da91336040518263ffffffff1660e01b8152600401610666919061190e565b60206040518083038186803b15801561067e57600080fd5b505afa158015610692573d6000803e3d6000fd5b505050506040513d601f19601f820116820180604052508101906106b69190611796565b611369565b80600860003373ffffffffffffffffffffffffffffffffffffffff1673ffffffffffffffffffffffffffffffffffffffff168152602001908152602001600020600082825461070a9190611be2565b92505081905550600560009054906101000a900473ffffffffffffffffffffffffffffffffffffffff1673ffffffffffffffffffffffffffffffffffffffff1663a9059cbb33836040518363ffffffff1660e01b815260040161076e929190611960565b602060405180830381600087803b15801561078857600080fd5b505af115801561079c573d6000803e3d6000fd5b505050506040513d601f19601f820116820180604052508101906107c09190611744565b503373ffffffffffffffffffffffffffffffffffffffff167f884edad9ce6fa2440d8a54cc123490eb96d2768479d49ff9c7366125a9424364826040516108079190611ad5565b60405180910390a250565b60026000541415610858576040517f08c379a000000000000000000000000000000000000000000000000000000000815260040161084f90611ab5565b60405180910390fd5b6002600081905550610868610c3a565b156108a8576040517f08c379a000000000000000000000000000000000000000000000000000000000815260040161089f90611a55565b60405180910390fd5b600460009054906101000a900473ffffffffffffffffffffffffffffffffffffffff1673ffffffffffffffffffffffffffffffffffffffff166323b872dd3330846040518463ffffffff1660e01b815260040161090793929190611929565b602060405180830381600087803b15801561092157600080fd5b505af1158015610935573d6000803e3d6000fd5b505050506040513d601f19601f820116820180604052508101906109599190611744565b50600560009054906101000a900473ffffffffffffffffffffffffffffffffffffffff1673ffffffffffffffffffffffffffffffffffffffff166340c10f1933836040518363ffffffff1660e01b81526004016109b7929190611960565b600060405180830381600087803b1580156109d157600080fd5b505af11580156109e5573d6000803e3d6000fd5b50505050600160008190555050565b6109fc6113f5565b73ffffffffffffffffffffffffffffffffffffffff16610a1a610d8b565b73ffffffffffffffffffffffffffffffffffffffff1614610a70576040517f08c379a0000000000000000000000000000000000000000000000000000000008152600401610a6790611a75565b60405180910390fd5b610a786113fd565b565b610a82610c3a565b15610ac2576040517f08c379a0000000000000000000000000000000000000000000000000000000008152600401610ab990611a55565b60405180910390fd5b60003073ffffffffffffffffffffffffffffffffffffffff1663cbc2da91336040518263ffffffff1660e01b8152600401610afd919061190e565b60206040518083038186803b158015610b1557600080fd5b505afa158015610b29573d6000803e3d6000fd5b505050506040513d601f19601f82011682018060405250810190610b4d9190611796565b9050610b5a336000611369565b600660009054906101000a900473ffffffffffffffffffffffffffffffffffffffff1673ffffffffffffffffffffffffffffffffffffffff166340c10f1933836040518363ffffffff1660e01b8152600401610bb7929190611960565b600060405180830381600087803b158015610bd157600080fd5b505af1158015610be5573d6000803e3d6000fd5b505050503373ffffffffffffffffffffffffffffffffffffffff167f47cee97cb7acd717b3c0aa1435d004cd5b3c8c57d70dbceb4e4458bbd60e39d482604051610c2f9190611ad5565b60405180910390a250565b6000600160009054906101000a900460ff16905090565b600560009054906101000a900473ffffffffffffffffffffffffffffffffffffffff1681565b610c7f6113f5565b73ffffffffffffffffffffffffffffffffffffffff16610c9d610d8b565b73ffffffffffffffffffffffffffffffffffffffff1614610cf3576040517f08c379a0000000000000000000000000000000000000000000000000000000008152600401610cea90611a75565b60405180910390fd5b610cfd600061149f565b565b60035481565b610d0d6113f5565b73ffffffffffffffffffffffffffffffffffffffff16610d2b610d8b565b73ffffffffffffffffffffffffffffffffffffffff1614610d81576040517f08c379a0000000000000000000000000000000000000000000000000000000008152600401610d7890611a75565b60405180910390fd5b610d89611562565b565b600060018054906101000a900473ffffffffffffffffffffffffffffffffffffffff16905090565b60025481565b610dc1610c3a565b15610e01576040517f08c379a0000000000000000000000000000000000000000000000000000000008152600401610df890611a55565b60405180910390fd5b600560009054906101000a900473ffffffffffffffffffffffffffffffffffffffff1673ffffffffffffffffffffffffffffffffffffffff166323b872dd3330846040518463ffffffff1660e01b8152600401610e6093929190611929565b602060405180830381600087803b158015610e7a57600080fd5b505af1158015610e8e573d6000803e3d6000fd5b505050506040513d601f19601f82011682018060405250810190610eb29190611744565b50610f45333073ffffffffffffffffffffffffffffffffffffffff1663cbc2da91336040518263ffffffff1660e01b8152600401610ef0919061190e565b60206040518083038186803b158015610f0857600080fd5b505afa158015610f1c573d6000803e3d6000fd5b505050506040513d601f19601f82011682018060405250810190610f409190611796565b611369565b80600860003373ffffffffffffffffffffffffffffffffffffffff1673ffffffffffffffffffffffffffffffffffffffff1681526020019081526020016000206000828254610f949190611b01565b925050819055503373ffffffffffffffffffffffffffffffffffffffff167fe1fffcc4923d04b559f4d29a8bfc6cda04eb5b0d3c460751c2402c5c5cc9109c82604051610fe19190611ad5565b60405180910390a250565b6000600860008373ffffffffffffffffffffffffffffffffffffffff1673ffffffffffffffffffffffffffffffffffffffff168152602001908152602001600020549050919050565b6002600054141561107b576040517f08c379a000000000000000000000000000000000000000000000000000000000815260040161107290611ab5565b60405180910390fd5b600260008190555061108b610c3a565b156110cb576040517f08c379a00000000000000000000000000000000000000000000000000000000081526004016110c290611a55565b60405180910390fd5b600560009054906101000a900473ffffffffffffffffffffffffffffffffffffffff1673ffffffffffffffffffffffffffffffffffffffff166379cc679033836040518363ffffffff1660e01b8152600401611128929190611960565b600060405180830381600087803b15801561114257600080fd5b505af1158015611156573d6000803e3d6000fd5b50505050600460009054906101000a900473ffffffffffffffffffffffffffffffffffffffff1673ffffffffffffffffffffffffffffffffffffffff1663a9059cbb33836040518363ffffffff1660e01b81526004016111b7929190611960565b602060405180830381600087803b1580156111d157600080fd5b505af11580156111e5573d6000803e3d6000fd5b505050506040513d601f19601f820116820180604052508101906112099190611744565b50600160008190555050565b600061122082611604565b600960008473ffffffffffffffffffffffffffffffffffffffff1673ffffffffffffffffffffffffffffffffffffffff1681526020019081526020016000205461126a9190611b01565b9050919050565b6112796113f5565b73ffffffffffffffffffffffffffffffffffffffff16611297610d8b565b73ffffffffffffffffffffffffffffffffffffffff16146112ed576040517f08c379a00000000000000000000000000000000000000000000000000000000081526004016112e490611a75565b60405180910390fd5b600073ffffffffffffffffffffffffffffffffffffffff168173ffffffffffffffffffffffffffffffffffffffff16141561135d576040517f08c379a000000000000000000000000000000000000000000000000000000000815260040161135490611a15565b60405180910390fd5b6113668161149f565b50565b80600960008473ffffffffffffffffffffffffffffffffffffffff1673ffffffffffffffffffffffffffffffffffffffff1681526020019081526020016000208190555043600a60008473ffffffffffffffffffffffffffffffffffffffff1673ffffffffffffffffffffffffffffffffffffffff168152602001908152602001600020819055505050565b600033905090565b611405610c3a565b611444576040517f08c379a000000000000000000000000000000000000000000000000000000000815260040161143b906119f5565b60405180910390fd5b6000600160006101000a81548160ff0219169083151502179055507f5db9ee0a495bf2e6ff9c91a7834c1ba4fdd244a5e8aa4e537bd38aeae4b073aa6114886113f5565b604051611495919061190e565b60405180910390a1565b600060018054906101000a900473ffffffffffffffffffffffffffffffffffffffff169050816001806101000a81548173ffffffffffffffffffffffffffffffffffffffff021916908373ffffffffffffffffffffffffffffffffffffffff1602179055508173ffffffffffffffffffffffffffffffffffffffff168173ffffffffffffffffffffffffffffffffffffffff167f8be0079c531659141344cd1fd0a4f28419497f9722a3daafe3b4186f6b6457e060405160405180910390a35050565b61156a610c3a565b156115aa576040517f08c379a00000000000000000000000000000000000000000000000000000000081526004016115a190611a55565b60405180910390fd5b60018060006101000a81548160ff0219169083151502179055507f62e78cea01bee320cd4e420270b5ea74000d11b0c9f74754ebdbfc544b05a2586115ed6113f5565b6040516115fa919061190e565b60405180910390a1565b600080600860008473ffffffffffffffffffffffffffffffffffffffff1673ffffffffffffffffffffffffffffffffffffffff1681526020019081526020016000205490506000600a60008573ffffffffffffffffffffffffffffffffffffffff1673ffffffffffffffffffffffffffffffffffffffff1681526020019081526020016000205490506003546002548383436116a09190611be2565b6116aa9190611b88565b6116b49190611b88565b6116be9190611b57565b92505050919050565b6000813590506116d681611e6d565b92915050565b6000815190506116eb81611e84565b92915050565b60008135905061170081611e9b565b92915050565b60008151905061171581611e9b565b92915050565b60006020828403121561172d57600080fd5b600061173b848285016116c7565b91505092915050565b60006020828403121561175657600080fd5b6000611764848285016116dc565b91505092915050565b60006020828403121561177f57600080fd5b600061178d848285016116f1565b91505092915050565b6000602082840312156117a857600080fd5b60006117b684828501611706565b91505092915050565b6117c881611c16565b82525050565b6117d781611c28565b82525050565b6117e681611c5e565b82525050565b6117f581611c82565b82525050565b61180481611ca6565b82525050565b6000611817601483611af0565b915061182282611d28565b602082019050919050565b600061183a602683611af0565b915061184582611d51565b604082019050919050565b600061185d601283611af0565b915061186882611da0565b602082019050919050565b6000611880601083611af0565b915061188b82611dc9565b602082019050919050565b60006118a3602083611af0565b91506118ae82611df2565b602082019050919050565b60006118c6601b83611af0565b91506118d182611e1b565b602082019050919050565b60006118e9601f83611af0565b91506118f482611e44565b602082019050919050565b61190881611c54565b82525050565b600060208201905061192360008301846117bf565b92915050565b600060608201905061193e60008301866117bf565b61194b60208301856117bf565b61195860408301846118ff565b949350505050565b600060408201905061197560008301856117bf565b61198260208301846118ff565b9392505050565b600060208201905061199e60008301846117ce565b92915050565b60006020820190506119b960008301846117dd565b92915050565b60006020820190506119d460008301846117ec565b92915050565b60006020820190506119ef60008301846117fb565b92915050565b60006020820190508181036000830152611a0e8161180a565b9050919050565b60006020820190508181036000830152611a2e8161182d565b9050919050565b60006020820190508181036000830152611a4e81611850565b9050919050565b60006020820190508181036000830152611a6e81611873565b9050919050565b60006020820190508181036000830152611a8e81611896565b9050919050565b60006020820190508181036000830152611aae816118b9565b9050919050565b60006020820190508181036000830152611ace816118dc565b9050919050565b6000602082019050611aea60008301846118ff565b92915050565b600082825260208201905092915050565b6000611b0c82611c54565b9150611b1783611c54565b9250827fffffffffffffffffffffffffffffffffffffffffffffffffffffffffffffffff03821115611b4c57611b4b611cca565b5b828201905092915050565b6000611b6282611c54565b9150611b6d83611c54565b925082611b7d57611b7c611cf9565b5b828204905092915050565b6000611b9382611c54565b9150611b9e83611c54565b9250817fffffffffffffffffffffffffffffffffffffffffffffffffffffffffffffffff0483118215151615611bd757611bd6611cca565b5b828202905092915050565b6000611bed82611c54565b9150611bf883611c54565b925082821015611c0b57611c0a611cca565b5b828203905092915050565b6000611c2182611c34565b9050919050565b60008115159050919050565b600073ffffffffffffffffffffffffffffffffffffffff82169050919050565b6000819050919050565b6000611c6982611c70565b9050919050565b6000611c7b82611c34565b9050919050565b6000611c8d82611c94565b9050919050565b6000611c9f82611c34565b9050919050565b6000611cb182611cb8565b9050919050565b6000611cc382611c34565b9050919050565b7f4e487b7100000000000000000000000000000000000000000000000000000000600052601160045260246000fd5b7f4e487b7100000000000000000000000000000000000000000000000000000000600052601260045260246000fd5b7f5061757361626c653a206e6f7420706175736564000000000000000000000000600082015250565b7f4f776e61626c653a206e6577206f776e657220697320746865207a65726f206160008201527f6464726573730000000000000000000000000000000000000000000000000000602082015250565b7f46617563657420696e20636f6f6c646f776e0000000000000000000000000000600082015250565b7f5061757361626c653a2070617573656400000000000000000000000000000000600082015250565b7f4f776e61626c653a2063616c6c6572206973206e6f7420746865206f776e6572600082015250565b7f4e6f7420656e6f756768206465706f736974656420746f6b656e730000000000600082015250565b7f5265656e7472616e637947756172643a207265656e7472616e742063616c6c00600082015250565b611e7681611c16565b8114611e8157600080fd5b50565b611e8d81611c28565b8114611e9857600080fd5b50565b611ea481611c54565b8114611eaf57600080fd5b5056fea26469706673582212204ac13d23d7de872a7acfe62df84ec8e7de436552ce48d6dbfcb1f32ec3ab0ce664736f6c63430008020033",
  "immutableReferences": {},
  "source": "// SPDX-License-Identifier: UNLICENSED\npragma solidity 0.8.2;\n\nimport \"./TokenA.sol\";\nimport \"./TokenB.sol\";\nimport \"./TokenDjango.sol\";\nimport \"@openzeppelin/contracts/security/ReentrancyGuard.sol\";\nimport \"@openzeppelin/contracts/security/Pausable.sol\";\nimport \"@openzeppelin/contracts/access/Ownable.sol\";\n\n/// @title Contract for usage of the django app\n/// @author Giuseppe Trieste\n/// @notice Allows a user to use the django application (get tokens, swap, deposit ...)\n/// @dev Pausable and Ownable are there in case of data migration to another contract\ncontract DjangoApp is ReentrancyGuard, Pausable, Ownable {\n\n    /// @notice DJG tokens as reward per block minted, every 100 TKB deposited\n    /// @dev This amount does consider decimals\n    uint public REWARD_PER_BLOCK = 1 * (10 ** 18);\n\n    /// @notice Amount of TKA given from the faucet\n    /// @dev This amount does consider decimals\n    uint public FAUCET_AMOUNT = 100 * (10 ** 18);\n\n    /// @notice TKA token, the one given by using the faucet\n    TokenA public tokenA;\n\n    /// @notice TKB token, the one used for depositing and earn rewards\n    TokenB public tokenB;\n\n    /// @notice DJG token, the one used rewarding the user for depositing TKB\n    TokenDjango public tokenDjango;\n\n    /// @dev Last time that an address used the faucet, the time is in seconds since the epoch\n    mapping(address => uint256) private lastTimeFaucet;\n\n    /// @dev Amount of TKB tokens deposited by an address;\n    /// The tokens deposited are held by the smart contract\n    mapping(address => uint256) private depositedTokenBalances;\n\n    /// @dev DJG tokens earned (not withdrawn yet) by an address\n    mapping(address => uint256) private earnedDjangoBalances;\n\n    /// @dev Last block that reward amount was updated\n    mapping(address => uint256) private lastBlockUpdate;\n\n    /// @notice Emitted when someone successfully uses the faucet\n    /// @param from The address that used it\n    /// @param timestamp The block timestamp of the successful transaction\n    event FaucetUsed(address indexed from, uint timestamp);\n\n    /// @notice Emitted when someone successfully deposits TKB in the contract\n    /// @param from The address that deposited the tokens\n    /// @param amount The amount of TKB deposited\n    event Deposit(address indexed from, uint amount);\n\n    /// @notice Emitted when someone successfully withdraws TKB from the contract\n    /// @param from The address that has withdrawn the tokens\n    /// @param amount The amount of TKB withdrawn\n    event Withdraw(address indexed from, uint amount);\n\n    /// @notice Emitted when someone successfully claims DJG\n    /// @param from The address that has claimed the tokens\n    /// @param amount The amount of DJG claimed\n    event Claim(address indexed from, uint amount);\n\n    /// @dev The three tokens contract addresses are passed as params at the time of deployment\n    /// @param _tokenA The TKA token contract address\n    /// @param _tokenB The TKB token contract address\n    /// @param _tokenDjango The DJG token contract address\n    constructor(address _tokenA, address _tokenB, address _tokenDjango) {\n        tokenA = TokenA(_tokenA);\n        tokenB = TokenB(_tokenB);\n        tokenDjango = TokenDjango(_tokenDjango);\n    }\n\n    /// @dev Pauses the contract, so all the (non-view) functions will be unusable\n    function pause() public onlyOwner {\n        _pause();\n    }\n\n    /// @dev Upauses the contract\n    function unpause() public onlyOwner {\n        _unpause();\n    }\n\n    /// @notice Mints faucet tokens (TKA) to the requester (msg.sender) if it's not in cooldown (24 hours)\n    /// @dev TKA is an openzeppelin ERC20Capped, so after its limit has been reached, the faucet won't give \n    /// tokens anymore; The function uses block.timestamp for the time difference\n    function useFaucet() external whenNotPaused {\n        require(block.timestamp >= lastTimeFaucet[msg.sender] + (24 * 60 * 60), \"Faucet in cooldown\");\n        \n        lastTimeFaucet[msg.sender] = block.timestamp;\n        \n        tokenA.mint(msg.sender, FAUCET_AMOUNT);\n\n        emit FaucetUsed(msg.sender, block.timestamp);\n    }\n\n    /// @notice Swaps TKA for TKB, ratio 1:1\n    /// @dev The TKB tokens are minted directly to the requester\n    /// @param amountTokenA_ Amount of TKA to be swapped\n    function swapFaucetTokensForDepositTokens(uint amountTokenA_) external nonReentrant whenNotPaused {\n        tokenA.transferFrom(msg.sender, address(this), amountTokenA_);\n        tokenB.mint(msg.sender, amountTokenA_);\n    }\n\n    /// @notice Swaps TKB for TKA, ratio 1:1\n    /// @dev The TKB tokens are burned directly from the requester\n    /// @param amountTokenB_ Amount of TKB to be swapped\n    function swapDepositTokensForFaucetTokens(uint amountTokenB_) external nonReentrant whenNotPaused {\n        tokenB.burnFrom(msg.sender, amountTokenB_);\n        tokenA.transfer(msg.sender, amountTokenB_);\n    }\n\n    /// @dev Getter function for depositedTokenBalances mapping\n    /// @param account_ The address of the user\n    /// @return Amount of TKB deposited by an user\n    function depositedTokens(address account_) external view returns (uint) {\n        return depositedTokenBalances[account_];\n    }\n\n    /// @dev Calculates the DJG earned since last block update (doesn't consider the ones before that, stored in earnedDjangoBalances)\n    /// @param account_ The address of the user\n    /// @return Partial amount of DJG earned from the user until now\n    function calculateDjangoEarned(address account_) internal view returns (uint) {\n        uint deposited = depositedTokenBalances[account_];\n        uint lastBlock = lastBlockUpdate[account_];\n\n        return ((block.number - lastBlock ) * deposited * REWARD_PER_BLOCK) / (FAUCET_AMOUNT);\n    }\n\n    /// @notice This is the total amount of DJG the user has earned until now\n    /// @dev It considers both the ones earned since last update and those already stored in earnedDjangoBalances\n    /// @param account_ The address of the user\n    /// @return Total amount of DJG earned from the user until now\n    function getDjangoEarned(address account_) external view returns (uint) {\n        return earnedDjangoBalances[account_] + calculateDjangoEarned(account_);\n    }\n\n    /// @dev DJG are earned for each block, but the earned balance is updated every time that user makes a transaction \n    /// depositing, withdrawing or claiming. The lastBlockUpdate is also updated in these three types of transactions\n    /// @param account_ The address of the user\n    /// @param amount_ New amount of DJG earned\n    function updateDjangoEarned(address account_, uint amount_) internal {\n        earnedDjangoBalances[account_] = amount_;\n        lastBlockUpdate[account_] = block.number;\n    }\n\n    /// @notice The user deposits TKB in the contract\n    /// @dev The contracts knows who and how much each user deposited thanks to depositedTokenBalances. The basic checks (enough amount \n    ///of tokens, enough allowance) are already done by the ERC20 functions\n    /// @param amount_ Amount of TKB to deposit\n    function deposit(uint amount_) external whenNotPaused {\n        tokenB.transferFrom(msg.sender, address(this), amount_);\n\n        updateDjangoEarned(msg.sender, this.getDjangoEarned(msg.sender));\n        depositedTokenBalances[msg.sender] += amount_;\n\n        emit Deposit(msg.sender, amount_);\n    }\n\n    /// @notice The user withdraws TKB from the contract\n    /// @dev Only checks that user deposited enough amount, the others are already done by the ERC20 functions\n    /// @param amount_ Amount of TKB to withdraw\n    function withdraw(uint amount_) external whenNotPaused {\n        require(depositedTokenBalances[msg.sender] >= amount_, \"Not enough deposited tokens\");\n\n        updateDjangoEarned(msg.sender, this.getDjangoEarned(msg.sender));\n        depositedTokenBalances[msg.sender] -= amount_;\n\n        tokenB.transfer(msg.sender, amount_);\n\n        emit Withdraw(msg.sender, amount_);\n    }\n\n    /// @notice The user claims all the DJG earned until now\n    /// @dev The DJG are minted directly to the user\n    function claim() external whenNotPaused {\n        uint djangoEarned = this.getDjangoEarned(msg.sender);\n\n        updateDjangoEarned(msg.sender, 0);\n\n        tokenDjango.mint(msg.sender, djangoEarned);\n\n        emit Claim(msg.sender, djangoEarned);\n    }\n}",
  "sourcePath": "/home/lanor/Consensys/0.project/blockchain-developer-bootcamp-final-project/DjangoApp/contracts/DjangoApp.sol",
  "compiler": {
    "name": "solc",
    "version": "0.8.2+commit.661d1103.Emscripten.clang"
  },
  "schemaVersion": "3.4.3",
  "updatedAt": "2021-11-23T16:53:01.562Z",
  "devdoc": {
    "author": "Giuseppe Trieste",
    "details": "Pausable and Ownable are there in case of data migration to another contract",
    "events": {
      "Claim(address,uint256)": {
        "params": {
          "amount": "The amount of DJG claimed",
          "from": "The address that has claimed the tokens"
        }
      },
      "Deposit(address,uint256)": {
        "params": {
          "amount": "The amount of TKB deposited",
          "from": "The address that deposited the tokens"
        }
      },
      "FaucetUsed(address,uint256)": {
        "params": {
          "from": "The address that used it",
          "timestamp": "The block timestamp of the successful transaction"
        }
      },
      "Withdraw(address,uint256)": {
        "params": {
          "amount": "The amount of TKB withdrawn",
          "from": "The address that has withdrawn the tokens"
        }
      }
    },
    "kind": "dev",
    "methods": {
      "claim()": {
        "details": "The DJG are minted directly to the user"
      },
      "constructor": {
        "details": "The three tokens contract addresses are passed as params at the time of deployment",
        "params": {
          "_tokenA": "The TKA token contract address",
          "_tokenB": "The TKB token contract address",
          "_tokenDjango": "The DJG token contract address"
        }
      },
      "deposit(uint256)": {
        "details": "The contracts knows who and how much each user deposited thanks to depositedTokenBalances. The basic checks (enough amount  of tokens, enough allowance) are already done by the ERC20 functions",
        "params": {
          "amount_": "Amount of TKB to deposit"
        }
      },
      "depositedTokens(address)": {
        "details": "Getter function for depositedTokenBalances mapping",
        "params": {
          "account_": "The address of the user"
        },
        "returns": {
          "_0": "Amount of TKB deposited by an user"
        }
      },
      "getDjangoEarned(address)": {
        "details": "It considers both the ones earned since last update and those already stored in earnedDjangoBalances",
        "params": {
          "account_": "The address of the user"
        },
        "returns": {
          "_0": "Total amount of DJG earned from the user until now"
        }
      },
      "owner()": {
        "details": "Returns the address of the current owner."
      },
      "pause()": {
        "details": "Pauses the contract, so all the (non-view) functions will be unusable"
      },
      "paused()": {
        "details": "Returns true if the contract is paused, and false otherwise."
      },
      "renounceOwnership()": {
        "details": "Leaves the contract without owner. It will not be possible to call `onlyOwner` functions anymore. Can only be called by the current owner. NOTE: Renouncing ownership will leave the contract without an owner, thereby removing any functionality that is only available to the owner."
      },
      "swapDepositTokensForFaucetTokens(uint256)": {
        "details": "The TKB tokens are burned directly from the requester",
        "params": {
          "amountTokenB_": "Amount of TKB to be swapped"
        }
      },
      "swapFaucetTokensForDepositTokens(uint256)": {
        "details": "The TKB tokens are minted directly to the requester",
        "params": {
          "amountTokenA_": "Amount of TKA to be swapped"
        }
      },
      "transferOwnership(address)": {
        "details": "Transfers ownership of the contract to a new account (`newOwner`). Can only be called by the current owner."
      },
      "unpause()": {
        "details": "Upauses the contract"
      },
      "useFaucet()": {
        "details": "TKA is an openzeppelin ERC20Capped, so after its limit has been reached, the faucet won't give  tokens anymore; The function uses block.timestamp for the time difference"
      },
      "withdraw(uint256)": {
        "details": "Only checks that user deposited enough amount, the others are already done by the ERC20 functions",
        "params": {
          "amount_": "Amount of TKB to withdraw"
        }
      }
    },
    "stateVariables": {
      "FAUCET_AMOUNT": {
        "details": "This amount does consider decimals"
      },
      "REWARD_PER_BLOCK": {
        "details": "This amount does consider decimals"
      },
      "depositedTokenBalances": {
        "details": "Amount of TKB tokens deposited by an address; The tokens deposited are held by the smart contract"
      },
      "earnedDjangoBalances": {
        "details": "DJG tokens earned (not withdrawn yet) by an address"
      },
      "lastBlockUpdate": {
        "details": "Last block that reward amount was updated"
      },
      "lastTimeFaucet": {
        "details": "Last time that an address used the faucet, the time is in seconds since the epoch"
      }
    },
    "title": "Contract for usage of the django app",
    "version": 1
  },
  "userdoc": {
    "events": {
      "Claim(address,uint256)": {
        "notice": "Emitted when someone successfully claims DJG"
      },
      "Deposit(address,uint256)": {
        "notice": "Emitted when someone successfully deposits TKB in the contract"
      },
      "FaucetUsed(address,uint256)": {
        "notice": "Emitted when someone successfully uses the faucet"
      },
      "Withdraw(address,uint256)": {
        "notice": "Emitted when someone successfully withdraws TKB from the contract"
      }
    },
    "kind": "user",
    "methods": {
      "FAUCET_AMOUNT()": {
        "notice": "Amount of TKA given from the faucet"
      },
      "REWARD_PER_BLOCK()": {
        "notice": "DJG tokens as reward per block minted, every 100 TKB deposited"
      },
      "claim()": {
        "notice": "The user claims all the DJG earned until now"
      },
      "deposit(uint256)": {
        "notice": "The user deposits TKB in the contract"
      },
      "getDjangoEarned(address)": {
        "notice": "This is the total amount of DJG the user has earned until now"
      },
      "swapDepositTokensForFaucetTokens(uint256)": {
        "notice": "Swaps TKB for TKA, ratio 1:1"
      },
      "swapFaucetTokensForDepositTokens(uint256)": {
        "notice": "Swaps TKA for TKB, ratio 1:1"
      },
      "tokenA()": {
        "notice": "TKA token, the one given by using the faucet"
      },
      "tokenB()": {
        "notice": "TKB token, the one used for depositing and earn rewards"
      },
      "tokenDjango()": {
        "notice": "DJG token, the one used rewarding the user for depositing TKB"
      },
      "useFaucet()": {
        "notice": "Mints faucet tokens (TKA) to the requester (msg.sender) if it's not in cooldown (24 hours)"
      },
      "withdraw(uint256)": {
        "notice": "The user withdraws TKB from the contract"
      }
    },
    "notice": "Allows a user to use the django application (get tokens, swap, deposit ...)",
    "version": 1
  }
}